{
  "_format": "hh-sol-artifact-1",
  "contractName": "Token",
  "sourceName": "contracts/Token.sol",
  "abi": [
    {
      "inputs": [],
      "stateMutability": "nonpayable",
      "type": "constructor"
    },
    {
      "inputs": [
        {
          "internalType": "address",
          "name": "account",
          "type": "address"
        }
      ],
      "name": "balanceOf",
      "outputs": [
        {
          "internalType": "uint256",
          "name": "",
          "type": "uint256"
        }
      ],
      "stateMutability": "view",
      "type": "function"
    },
    {
      "inputs": [],
      "name": "owner",
      "outputs": [
        {
          "internalType": "address",
          "name": "",
          "type": "address"
        }
      ],
      "stateMutability": "view",
      "type": "function"
    },
    {
      "inputs": [],
      "name": "symbol",
      "outputs": [
        {
          "internalType": "string",
          "name": "",
          "type": "string"
        }
      ],
      "stateMutability": "view",
      "type": "function"
    },
    {
      "inputs": [],
      "name": "token",
      "outputs": [
        {
          "internalType": "string",
          "name": "",
          "type": "string"
        }
      ],
      "stateMutability": "view",
      "type": "function"
    },
    {
      "inputs": [],
      "name": "totalSupply",
      "outputs": [
        {
          "internalType": "uint256",
          "name": "",
          "type": "uint256"
        }
      ],
      "stateMutability": "view",
      "type": "function"
    },
    {
      "inputs": [
        {
          "internalType": "address",
          "name": "to",
          "type": "address"
        },
        {
          "internalType": "uint256",
          "name": "amount",
          "type": "uint256"
        }
      ],
      "name": "transfer",
      "outputs": [],
      "stateMutability": "nonpayable",
      "type": "function"
    }
  ],
  "bytecode": "0x60806040526040518060400160405280600d81526020017f4861726448617420546f6b656e000000000000000000000000000000000000008152506000908051906020019061004f92919061013b565b506040518060400160405280600381526020017f48485400000000000000000000000000000000000000000000000000000000008152506001908051906020019061009b92919061013b565b506127106002553480156100ae57600080fd5b50600254600460003373ffffffffffffffffffffffffffffffffffffffff1673ffffffffffffffffffffffffffffffffffffffff1681526020019081526020016000208190555033600360006101000a81548173ffffffffffffffffffffffffffffffffffffffff021916908373ffffffffffffffffffffffffffffffffffffffff16021790555061023f565b8280546101479061020d565b90600052602060002090601f01602090048101928261016957600085556101b0565b82601f1061018257805160ff19168380011785556101b0565b828001600101855582156101b0579182015b828111156101af578251825591602001919060010190610194565b5b5090506101bd91906101c1565b5090565b5b808211156101da5760008160009055506001016101c2565b5090565b7f4e487b7100000000000000000000000000000000000000000000000000000000600052602260045260246000fd5b6000600282049050600182168061022557607f821691505b60208210811415610239576102386101de565b5b50919050565b610a5d8061024e6000396000f3fe608060405234801561001057600080fd5b50600436106100625760003560e01c806318160ddd1461006757806370a08231146100855780638da5cb5b146100b557806395d89b41146100d3578063a9059cbb146100f1578063fc0c546a1461010d575b600080fd5b61006f61012b565b60405161007c919061060b565b60405180910390f35b61009f600480360381019061009a9190610689565b610131565b6040516100ac919061060b565b60405180910390f35b6100bd61017a565b6040516100ca91906106c5565b60405180910390f35b6100db6101a0565b6040516100e89190610779565b60405180910390f35b61010b600480360381019061010691906107c7565b61022e565b005b610115610400565b6040516101229190610779565b60405180910390f35b60025481565b6000600460008373ffffffffffffffffffffffffffffffffffffffff1673ffffffffffffffffffffffffffffffffffffffff168152602001908152602001600020549050919050565b600360009054906101000a900473ffffffffffffffffffffffffffffffffffffffff1681565b600180546101ad90610836565b80601f01602080910402602001604051908101604052809291908181526020018280546101d990610836565b80156102265780601f106101fb57610100808354040283529160200191610226565b820191906000526020600020905b81548152906001019060200180831161020957829003601f168201915b505050505081565b6102ac6040518060400160405280601881526020017f2a2a53656e6465722042616c616e6365206973203a2025730000000000000000815250600460003373ffffffffffffffffffffffffffffffffffffffff1673ffffffffffffffffffffffffffffffffffffffff1681526020019081526020016000205461048e565b6102cf6040518060600160405280602c81526020016109fc602c9139828461052a565b80600460003373ffffffffffffffffffffffffffffffffffffffff1673ffffffffffffffffffffffffffffffffffffffff1681526020019081526020016000205411610350576040517f08c379a0000000000000000000000000000000000000000000000000000000008152600401610347906108b4565b60405180910390fd5b80600460003373ffffffffffffffffffffffffffffffffffffffff1673ffffffffffffffffffffffffffffffffffffffff168152602001908152602001600020600082825461039f9190610903565b9250508190555080600460008473ffffffffffffffffffffffffffffffffffffffff1673ffffffffffffffffffffffffffffffffffffffff16815260200190815260200160002060008282546103f59190610937565b925050819055505050565b6000805461040d90610836565b80601f016020809104026020016040519081016040528092919081815260200182805461043990610836565b80156104865780601f1061045b57610100808354040283529160200191610486565b820191906000526020600020905b81548152906001019060200180831161046957829003601f168201915b505050505081565b61052682826040516024016104a492919061098d565b6040516020818303038152906040527f9710a9d0000000000000000000000000000000000000000000000000000000007bffffffffffffffffffffffffffffffffffffffffffffffffffffffff19166020820180517bffffffffffffffffffffffffffffffffffffffffffffffffffffffff83818316178352505050506105c9565b5050565b6105c4838383604051602401610542939291906109bd565b6040516020818303038152906040527fe3849f79000000000000000000000000000000000000000000000000000000007bffffffffffffffffffffffffffffffffffffffffffffffffffffffff19166020820180517bffffffffffffffffffffffffffffffffffffffffffffffffffffffff83818316178352505050506105c9565b505050565b60008151905060006a636f6e736f6c652e6c6f679050602083016000808483855afa5050505050565b6000819050919050565b610605816105f2565b82525050565b600060208201905061062060008301846105fc565b92915050565b600080fd5b600073ffffffffffffffffffffffffffffffffffffffff82169050919050565b60006106568261062b565b9050919050565b6106668161064b565b811461067157600080fd5b50565b6000813590506106838161065d565b92915050565b60006020828403121561069f5761069e610626565b5b60006106ad84828501610674565b91505092915050565b6106bf8161064b565b82525050565b60006020820190506106da60008301846106b6565b92915050565b600081519050919050565b600082825260208201905092915050565b60005b8381101561071a5780820151818401526020810190506106ff565b83811115610729576000848401525b50505050565b6000601f19601f8301169050919050565b600061074b826106e0565b61075581856106eb565b93506107658185602086016106fc565b61076e8161072f565b840191505092915050565b600060208201905081810360008301526107938184610740565b905092915050565b6107a4816105f2565b81146107af57600080fd5b50565b6000813590506107c18161079b565b92915050565b600080604083850312156107de576107dd610626565b5b60006107ec85828601610674565b92505060206107fd858286016107b2565b9150509250929050565b7f4e487b7100000000000000000000000000000000000000000000000000000000600052602260045260246000fd5b6000600282049050600182168061084e57607f821691505b6020821081141561086257610861610807565b5b50919050565b7f4e6f7420456e6f75676820546f6b656e73000000000000000000000000000000600082015250565b600061089e6011836106eb565b91506108a982610868565b602082019050919050565b600060208201905081810360008301526108cd81610891565b9050919050565b7f4e487b7100000000000000000000000000000000000000000000000000000000600052601160045260246000fd5b600061090e826105f2565b9150610919836105f2565b92508282101561092c5761092b6108d4565b5b828203905092915050565b6000610942826105f2565b915061094d836105f2565b9250827fffffffffffffffffffffffffffffffffffffffffffffffffffffffffffffffff03821115610982576109816108d4565b5b828201905092915050565b600060408201905081810360008301526109a78185610740565b90506109b660208301846105fc565b9392505050565b600060608201905081810360008301526109d78186610740565b90506109e660208301856105fc565b6109f360408301846106b6565b94935050505056fe2a2a53656e6465722069732073656e64696e6720257320746f6b656e7320746f202573206164647265737320a26469706673582212202cba6f1bfaba85025e337f07861f58634c50cec6ecdfb41e19b4d9962771263064736f6c63430008090033",
  "linkReferences": {},
  "deployedLinkReferences": {}
}